{
  "_format": "hh-sol-artifact-1",
  "contractName": "Token",
  "sourceName": "contracts/Token.sol",
  "abi": [
    {
      "inputs": [
        {
          "internalType": "string",
          "name": "name_",
          "type": "string"
        },
        {
          "internalType": "string",
          "name": "symbol_",
          "type": "string"
        }
      ],
      "stateMutability": "nonpayable",
      "type": "constructor"
    },
    {
      "anonymous": false,
      "inputs": [
        {
          "indexed": true,
          "internalType": "address",
          "name": "owner",
          "type": "address"
        },
        {
          "indexed": true,
          "internalType": "address",
          "name": "spender",
          "type": "address"
        },
        {
          "indexed": false,
          "internalType": "uint256",
          "name": "value",
          "type": "uint256"
        }
      ],
      "name": "Approval",
      "type": "event"
    },
    {
      "anonymous": false,
      "inputs": [
        {
          "indexed": false,
          "internalType": "uint256",
          "name": "value",
          "type": "uint256"
        }
      ],
      "name": "Balance",
      "type": "event"
    },
    {
      "anonymous": false,
      "inputs": [
        {
          "indexed": false,
          "internalType": "address",
          "name": "value",
          "type": "address"
        }
      ],
      "name": "DebugAddr",
      "type": "event"
    },
    {
      "anonymous": false,
      "inputs": [
        {
          "indexed": false,
          "internalType": "uint256",
          "name": "value",
          "type": "uint256"
        }
      ],
      "name": "Erc20Step",
      "type": "event"
    },
    {
      "anonymous": false,
      "inputs": [
        {
          "indexed": true,
          "internalType": "address",
          "name": "from",
          "type": "address"
        },
        {
          "indexed": true,
          "internalType": "address",
          "name": "to",
          "type": "address"
        },
        {
          "indexed": false,
          "internalType": "uint256",
          "name": "value",
          "type": "uint256"
        }
      ],
      "name": "Transfer",
      "type": "event"
    },
    {
      "inputs": [
        {
          "internalType": "address",
          "name": "owner",
          "type": "address"
        },
        {
          "internalType": "address",
          "name": "spender",
          "type": "address"
        }
      ],
      "name": "allowance",
      "outputs": [
        {
          "internalType": "uint256",
          "name": "",
          "type": "uint256"
        }
      ],
      "stateMutability": "view",
      "type": "function"
    },
    {
      "inputs": [
        {
          "internalType": "address",
          "name": "spender",
          "type": "address"
        },
        {
          "internalType": "uint256",
          "name": "amount",
          "type": "uint256"
        }
      ],
      "name": "approve",
      "outputs": [
        {
          "internalType": "bool",
          "name": "",
          "type": "bool"
        }
      ],
      "stateMutability": "nonpayable",
      "type": "function"
    },
    {
      "inputs": [
        {
          "internalType": "address",
          "name": "account",
          "type": "address"
        }
      ],
      "name": "balanceOf",
      "outputs": [
        {
          "internalType": "uint256",
          "name": "",
          "type": "uint256"
        }
      ],
      "stateMutability": "view",
      "type": "function"
    },
    {
      "inputs": [
        {
          "internalType": "address",
          "name": "account",
          "type": "address"
        },
        {
          "internalType": "uint256",
          "name": "amount",
          "type": "uint256"
        }
      ],
      "name": "burn",
      "outputs": [],
      "stateMutability": "nonpayable",
      "type": "function"
    },
    {
      "inputs": [],
      "name": "decimals",
      "outputs": [
        {
          "internalType": "uint8",
          "name": "",
          "type": "uint8"
        }
      ],
      "stateMutability": "view",
      "type": "function"
    },
    {
      "inputs": [
        {
          "internalType": "address",
          "name": "account",
          "type": "address"
        },
        {
          "internalType": "uint256",
          "name": "amount",
          "type": "uint256"
        }
      ],
      "name": "mint",
      "outputs": [],
      "stateMutability": "nonpayable",
      "type": "function"
    },
    {
      "inputs": [],
      "name": "name",
      "outputs": [
        {
          "internalType": "string",
          "name": "",
          "type": "string"
        }
      ],
      "stateMutability": "view",
      "type": "function"
    },
    {
      "inputs": [],
      "name": "owner",
      "outputs": [
        {
          "internalType": "address",
          "name": "",
          "type": "address"
        }
      ],
      "stateMutability": "view",
      "type": "function"
    },
    {
      "inputs": [],
      "name": "symbol",
      "outputs": [
        {
          "internalType": "string",
          "name": "",
          "type": "string"
        }
      ],
      "stateMutability": "view",
      "type": "function"
    },
    {
      "inputs": [],
      "name": "totalSupply",
      "outputs": [
        {
          "internalType": "uint256",
          "name": "",
          "type": "uint256"
        }
      ],
      "stateMutability": "view",
      "type": "function"
    },
    {
      "inputs": [
        {
          "internalType": "address",
          "name": "recipient",
          "type": "address"
        },
        {
          "internalType": "uint256",
          "name": "amount",
          "type": "uint256"
        }
      ],
      "name": "transfer",
      "outputs": [
        {
          "internalType": "bool",
          "name": "",
          "type": "bool"
        }
      ],
      "stateMutability": "nonpayable",
      "type": "function"
    },
    {
      "inputs": [
        {
          "internalType": "address",
          "name": "sender",
          "type": "address"
        },
        {
          "internalType": "address",
          "name": "recipient",
          "type": "address"
        },
        {
          "internalType": "uint256",
          "name": "amount",
          "type": "uint256"
        }
      ],
      "name": "transferFrom",
      "outputs": [
        {
          "internalType": "bool",
          "name": "",
          "type": "bool"
        }
      ],
      "stateMutability": "nonpayable",
      "type": "function"
    }
  ],
  "bytecode": "0x60a06040523480156200001157600080fd5b5060405162004ba138038062004ba18339818101604052810190620000379190620002f0565b8160039081620000489190620005c0565b5080600490816200005a9190620005c0565b506012600560006101000a81548160ff021916908360ff16021790555060007fffffffffffffffffffffffffffffffffffffffffffffffffffffffffffffffff604051620000a8906200014f565b620000b5929190620006fb565b604051809103906000f080158015620000d2573d6000803e3d6000fd5b50600260006101000a81548173ffffffffffffffffffffffffffffffffffffffff021916908373ffffffffffffffffffffffffffffffffffffffff1602179055503373ffffffffffffffffffffffffffffffffffffffff1660808173ffffffffffffffffffffffffffffffffffffffff1681525050505062000728565b610b7b806200402683390190565b6000604051905090565b600080fd5b600080fd5b600080fd5b600080fd5b6000601f19601f8301169050919050565b7f4e487b7100000000000000000000000000000000000000000000000000000000600052604160045260246000fd5b620001c6826200017b565b810181811067ffffffffffffffff82111715620001e857620001e76200018c565b5b80604052505050565b6000620001fd6200015d565b90506200020b8282620001bb565b919050565b600067ffffffffffffffff8211156200022e576200022d6200018c565b5b62000239826200017b565b9050602081019050919050565b60005b838110156200026657808201518184015260208101905062000249565b60008484015250505050565b600062000289620002838462000210565b620001f1565b905082815260208101848484011115620002a857620002a762000176565b5b620002b584828562000246565b509392505050565b600082601f830112620002d557620002d462000171565b5b8151620002e784826020860162000272565b91505092915050565b600080604083850312156200030a576200030962000167565b5b600083015167ffffffffffffffff8111156200032b576200032a6200016c565b5b6200033985828601620002bd565b925050602083015167ffffffffffffffff8111156200035d576200035c6200016c565b5b6200036b85828601620002bd565b9150509250929050565b600081519050919050565b7f4e487b7100000000000000000000000000000000000000000000000000000000600052602260045260246000fd5b60006002820490506001821680620003c857607f821691505b602082108103620003de57620003dd62000380565b5b50919050565b60008190508160005260206000209050919050565b60006020601f8301049050919050565b600082821b905092915050565b600060088302620004487fffffffffffffffffffffffffffffffffffffffffffffffffffffffffffffffff8262000409565b62000454868362000409565b95508019841693508086168417925050509392505050565b6000819050919050565b6000819050919050565b6000620004a16200049b62000495846200046c565b62000476565b6200046c565b9050919050565b6000819050919050565b620004bd8362000480565b620004d5620004cc82620004a8565b84845462000416565b825550505050565b600090565b620004ec620004dd565b620004f9818484620004b2565b505050565b5b81811015620005215762000515600082620004e2565b600181019050620004ff565b5050565b601f82111562000570576200053a81620003e4565b6200054584620003f9565b8101602085101562000555578190505b6200056d6200056485620003f9565b830182620004fe565b50505b505050565b600082821c905092915050565b6000620005956000198460080262000575565b1980831691505092915050565b6000620005b0838362000582565b9150826002028217905092915050565b620005cb8262000375565b67ffffffffffffffff811115620005e757620005e66200018c565b5b620005f38254620003af565b6200060082828562000525565b600060209050601f83116001811462000638576000841562000623578287015190505b6200062f8582620005a2565b8655506200069f565b601f1984166200064886620003e4565b60005b8281101562000672578489015182556001820191506020850194506020810190506200064b565b868310156200069257848901516200068e601f89168262000582565b8355505b6001600288020188555050505b505050505050565b6000819050919050565b6000620006d2620006cc620006c684620006a7565b62000476565b6200046c565b9050919050565b620006e481620006b1565b82525050565b620006f5816200046c565b82525050565b6000604082019050620007126000830185620006d9565b620007216020830184620006ea565b9392505050565b6080516138e2620007446000396000610f8901526138e26000f3fe60806040523480156200001157600080fd5b5060043610620000c45760003560e01c806370a08231116200007b57806370a0823114620001bb5780638da5cb5b14620001f157806395d89b4114620002135780639dc29fac1462000235578063a9059cbb1462000255578063dd62ed3e146200028b57620000c4565b806306fdde0314620000c9578063095ea7b314620000eb57806318160ddd146200012157806323b872dd1462000143578063313ce567146200017957806340c10f19146200019b575b600080fd5b620000d3620002c1565b604051620000e2919062002217565b60405180910390f35b620001096004803603810190620001039190620022e0565b6200035b565b60405162000118919062002344565b60405180910390f35b6200012b62000374565b6040516200013a919062002372565b60405180910390f35b6200016160048036038101906200015b91906200238f565b6200040f565b60405162000170919062002344565b60405180910390f35b6200018362000a1e565b60405162000192919062002409565b60405180910390f35b620001b96004803603810190620001b39190620022e0565b62000a35565b005b620001d96004803603810190620001d3919062002426565b62000e11565b604051620001e8919062002372565b60405180910390f35b620001fb62000f87565b6040516200020a919062002469565b60405180910390f35b6200021d62000fab565b6040516200022c919062002217565b60405180910390f35b6200025360048036038101906200024d9190620022e0565b62001045565b005b6200027360048036038101906200026d9190620022e0565b6200149a565b60405162000282919062002344565b60405180910390f35b620002a96004803603810190620002a3919062002486565b620014b3565b604051620002b8919062002372565b60405180910390f35b606060038054620002d290620024fc565b80601f01602080910402602001604051908101604052809291908181526020018280546200030090620024fc565b8015620003515780601f10620003255761010080835404028352916020019162000351565b820191906000526020600020905b8154815290600101906020018083116200033357829003601f168201915b5050505050905090565b60006200036a338484620016a6565b6001905092915050565b6000600260009054906101000a900473ffffffffffffffffffffffffffffffffffffffff1673ffffffffffffffffffffffffffffffffffffffff16636d4ce63c6040518163ffffffff1660e01b8152600401602060405180830381865afa158015620003e4573d6000803e3d6000fd5b505050506040513d601f19601f820116820180604052508101906200040a919062002548565b905090565b60007f279df13f0ec9b9bf2c09b45f258a97d539222c85750b96419f527a165ee375896020604051620004439190620025c7565b60405180910390a16200045884848462001afc565b7f279df13f0ec9b9bf2c09b45f258a97d539222c85750b96419f527a165ee3758960216040516200048a919062002627565b60405180910390a1600073ffffffffffffffffffffffffffffffffffffffff16600160008673ffffffffffffffffffffffffffffffffffffffff1673ffffffffffffffffffffffffffffffffffffffff16815260200190815260200160002060003373ffffffffffffffffffffffffffffffffffffffff1673ffffffffffffffffffffffffffffffffffffffff16815260200190815260200160002060009054906101000a900473ffffffffffffffffffffffffffffffffffffffff1673ffffffffffffffffffffffffffffffffffffffff1603620005a0576040517f08c379a0000000000000000000000000000000000000000000000000000000008152600401620005979062002694565b60405180910390fd5b7f279df13f0ec9b9bf2c09b45f258a97d539222c85750b96419f527a165ee375896022604051620005d29190620026f9565b60405180910390a181600160008673ffffffffffffffffffffffffffffffffffffffff1673ffffffffffffffffffffffffffffffffffffffff16815260200190815260200160002060003373ffffffffffffffffffffffffffffffffffffffff1673ffffffffffffffffffffffffffffffffffffffff16815260200190815260200160002060009054906101000a900473ffffffffffffffffffffffffffffffffffffffff1673ffffffffffffffffffffffffffffffffffffffff16636d4ce63c6040518163ffffffff1660e01b8152600401602060405180830381865afa158015620006c3573d6000803e3d6000fd5b505050506040513d601f19601f82011682018060405250810190620006e9919062002548565b10156200072d576040517f08c379a000000000000000000000000000000000000000000000000000000000815260040162000724906200278c565b60405180910390fd5b7f279df13f0ec9b9bf2c09b45f258a97d539222c85750b96419f527a165ee3758960236040516200075f9190620027f1565b60405180910390a1600160008573ffffffffffffffffffffffffffffffffffffffff1673ffffffffffffffffffffffffffffffffffffffff16815260200190815260200160002060003373ffffffffffffffffffffffffffffffffffffffff1673ffffffffffffffffffffffffffffffffffffffff16815260200190815260200160002060009054906101000a900473ffffffffffffffffffffffffffffffffffffffff1673ffffffffffffffffffffffffffffffffffffffff166327ee58a6836040518263ffffffff1660e01b81526004016200083e919062002372565b6020604051808303816000875af11580156200085e573d6000803e3d6000fd5b505050506040513d601f19601f820116820180604052508101906200088491906200283f565b507f279df13f0ec9b9bf2c09b45f258a97d539222c85750b96419f527a165ee375896024604051620008b79190620028b4565b60405180910390a1620009d98433600160008873ffffffffffffffffffffffffffffffffffffffff1673ffffffffffffffffffffffffffffffffffffffff16815260200190815260200160002060003373ffffffffffffffffffffffffffffffffffffffff1673ffffffffffffffffffffffffffffffffffffffff16815260200190815260200160002060009054906101000a900473ffffffffffffffffffffffffffffffffffffffff1673ffffffffffffffffffffffffffffffffffffffff16636d4ce63c6040518163ffffffff1660e01b8152600401602060405180830381865afa158015620009ad573d6000803e3d6000fd5b505050506040513d601f19601f82011682018060405250810190620009d3919062002548565b620016a6565b7f279df13f0ec9b9bf2c09b45f258a97d539222c85750b96419f527a165ee37589602560405162000a0b919062002914565b60405180910390a1600190509392505050565b6000600560009054906101000a900460ff16905090565b600073ffffffffffffffffffffffffffffffffffffffff168273ffffffffffffffffffffffffffffffffffffffff160362000aa7576040517f08c379a000000000000000000000000000000000000000000000000000000000815260040162000a9e9062002981565b60405180910390fd5b62000ab5600083836200216a565b600260009054906101000a900473ffffffffffffffffffffffffffffffffffffffff1673ffffffffffffffffffffffffffffffffffffffff16631003e2d2826040518263ffffffff1660e01b815260040162000b12919062002372565b6020604051808303816000875af115801562000b32573d6000803e3d6000fd5b505050506040513d601f19601f8201168201806040525081019062000b5891906200283f565b50600073ffffffffffffffffffffffffffffffffffffffff166000808473ffffffffffffffffffffffffffffffffffffffff1673ffffffffffffffffffffffffffffffffffffffff16815260200190815260200160002060009054906101000a900473ffffffffffffffffffffffffffffffffffffffff1673ffffffffffffffffffffffffffffffffffffffff160362000cc55760007fffffffffffffffffffffffffffffffffffffffffffffffffffffffffffffffff60405162000c1d906200216f565b62000c2a929190620029e6565b604051809103906000f08015801562000c47573d6000803e3d6000fd5b506000808473ffffffffffffffffffffffffffffffffffffffff1673ffffffffffffffffffffffffffffffffffffffff16815260200190815260200160002060006101000a81548173ffffffffffffffffffffffffffffffffffffffff021916908373ffffffffffffffffffffffffffffffffffffffff1602179055505b6000808373ffffffffffffffffffffffffffffffffffffffff1673ffffffffffffffffffffffffffffffffffffffff16815260200190815260200160002060009054906101000a900473ffffffffffffffffffffffffffffffffffffffff1673ffffffffffffffffffffffffffffffffffffffff16631003e2d2826040518263ffffffff1660e01b815260040162000d5e919062002372565b6020604051808303816000875af115801562000d7e573d6000803e3d6000fd5b505050506040513d601f19601f8201168201806040525081019062000da491906200283f565b508173ffffffffffffffffffffffffffffffffffffffff16600073ffffffffffffffffffffffffffffffffffffffff167fddf252ad1be2c89b69c2b068fc378daa952ba7f163c4a11628f55a4df523b3ef8360405162000e05919062002372565b60405180910390a35050565b60008073ffffffffffffffffffffffffffffffffffffffff166000808473ffffffffffffffffffffffffffffffffffffffff1673ffffffffffffffffffffffffffffffffffffffff16815260200190815260200160002060009054906101000a900473ffffffffffffffffffffffffffffffffffffffff1673ffffffffffffffffffffffffffffffffffffffff160362000eaf576000905062000f82565b6000808373ffffffffffffffffffffffffffffffffffffffff1673ffffffffffffffffffffffffffffffffffffffff16815260200190815260200160002060009054906101000a900473ffffffffffffffffffffffffffffffffffffffff1673ffffffffffffffffffffffffffffffffffffffff16636d4ce63c6040518163ffffffff1660e01b8152600401602060405180830381865afa15801562000f59573d6000803e3d6000fd5b505050506040513d601f19601f8201168201806040525081019062000f7f919062002548565b90505b919050565b7f000000000000000000000000000000000000000000000000000000000000000081565b60606004805462000fbc90620024fc565b80601f016020809104026020016040519081016040528092919081815260200182805462000fea90620024fc565b80156200103b5780601f106200100f576101008083540402835291602001916200103b565b820191906000526020600020905b8154815290600101906020018083116200101d57829003601f168201915b5050505050905090565b600073ffffffffffffffffffffffffffffffffffffffff168273ffffffffffffffffffffffffffffffffffffffff1603620010b7576040517f08c379a0000000000000000000000000000000000000000000000000000000008152600401620010ae9062002a63565b60405180910390fd5b620010c5826000836200216a565b600073ffffffffffffffffffffffffffffffffffffffff166000808473ffffffffffffffffffffffffffffffffffffffff1673ffffffffffffffffffffffffffffffffffffffff16815260200190815260200160002060009054906101000a900473ffffffffffffffffffffffffffffffffffffffff1673ffffffffffffffffffffffffffffffffffffffff160362001195576040517f08c379a00000000000000000000000000000000000000000000000000000000081526004016200118c9062002ad5565b60405180910390fd5b806000808473ffffffffffffffffffffffffffffffffffffffff1673ffffffffffffffffffffffffffffffffffffffff16815260200190815260200160002060009054906101000a900473ffffffffffffffffffffffffffffffffffffffff1673ffffffffffffffffffffffffffffffffffffffff16636d4ce63c6040518163ffffffff1660e01b8152600401602060405180830381865afa15801562001240573d6000803e3d6000fd5b505050506040513d601f19601f8201168201806040525081019062001266919062002548565b1015620012aa576040517f08c379a0000000000000000000000000000000000000000000000000000000008152600401620012a19062002ad5565b60405180910390fd5b6000808373ffffffffffffffffffffffffffffffffffffffff1673ffffffffffffffffffffffffffffffffffffffff16815260200190815260200160002060009054906101000a900473ffffffffffffffffffffffffffffffffffffffff1673ffffffffffffffffffffffffffffffffffffffff166327ee58a6826040518263ffffffff1660e01b815260040162001343919062002372565b6020604051808303816000875af115801562001363573d6000803e3d6000fd5b505050506040513d601f19601f820116820180604052508101906200138991906200283f565b50600260009054906101000a900473ffffffffffffffffffffffffffffffffffffffff1673ffffffffffffffffffffffffffffffffffffffff166327ee58a6826040518263ffffffff1660e01b8152600401620013e7919062002372565b6020604051808303816000875af115801562001407573d6000803e3d6000fd5b505050506040513d601f19601f820116820180604052508101906200142d91906200283f565b50600073ffffffffffffffffffffffffffffffffffffffff168273ffffffffffffffffffffffffffffffffffffffff167fddf252ad1be2c89b69c2b068fc378daa952ba7f163c4a11628f55a4df523b3ef836040516200148e919062002372565b60405180910390a35050565b6000620014a933848462001afc565b6001905092915050565b60008073ffffffffffffffffffffffffffffffffffffffff16600160008573ffffffffffffffffffffffffffffffffffffffff1673ffffffffffffffffffffffffffffffffffffffff16815260200190815260200160002060008473ffffffffffffffffffffffffffffffffffffffff1673ffffffffffffffffffffffffffffffffffffffff16815260200190815260200160002060009054906101000a900473ffffffffffffffffffffffffffffffffffffffff1673ffffffffffffffffffffffffffffffffffffffff16036200158f5760009050620016a0565b600160008473ffffffffffffffffffffffffffffffffffffffff1673ffffffffffffffffffffffffffffffffffffffff16815260200190815260200160002060008373ffffffffffffffffffffffffffffffffffffffff1673ffffffffffffffffffffffffffffffffffffffff16815260200190815260200160002060009054906101000a900473ffffffffffffffffffffffffffffffffffffffff1673ffffffffffffffffffffffffffffffffffffffff16636d4ce63c6040518163ffffffff1660e01b8152600401602060405180830381865afa15801562001677573d6000803e3d6000fd5b505050506040513d601f19601f820116820180604052508101906200169d919062002548565b90505b92915050565b600073ffffffffffffffffffffffffffffffffffffffff168373ffffffffffffffffffffffffffffffffffffffff160362001718576040517f08c379a00000000000000000000000000000000000000000000000000000000081526004016200170f9062002b47565b60405180910390fd5b600073ffffffffffffffffffffffffffffffffffffffff168273ffffffffffffffffffffffffffffffffffffffff16036200178a576040517f08c379a0000000000000000000000000000000000000000000000000000000008152600401620017819062002bb9565b60405180910390fd5b600073ffffffffffffffffffffffffffffffffffffffff16600160008573ffffffffffffffffffffffffffffffffffffffff1673ffffffffffffffffffffffffffffffffffffffff16815260200190815260200160002060008473ffffffffffffffffffffffffffffffffffffffff1673ffffffffffffffffffffffffffffffffffffffff16815260200190815260200160002060009054906101000a900473ffffffffffffffffffffffffffffffffffffffff1673ffffffffffffffffffffffffffffffffffffffff1603620019725760007fffffffffffffffffffffffffffffffffffffffffffffffffffffffffffffffff6040516200188c906200216f565b62001899929190620029e6565b604051809103906000f080158015620018b6573d6000803e3d6000fd5b50600160008573ffffffffffffffffffffffffffffffffffffffff1673ffffffffffffffffffffffffffffffffffffffff16815260200190815260200160002060008473ffffffffffffffffffffffffffffffffffffffff1673ffffffffffffffffffffffffffffffffffffffff16815260200190815260200160002060006101000a81548173ffffffffffffffffffffffffffffffffffffffff021916908373ffffffffffffffffffffffffffffffffffffffff1602179055505b600160008473ffffffffffffffffffffffffffffffffffffffff1673ffffffffffffffffffffffffffffffffffffffff16815260200190815260200160002060008373ffffffffffffffffffffffffffffffffffffffff1673ffffffffffffffffffffffffffffffffffffffff16815260200190815260200160002060009054906101000a900473ffffffffffffffffffffffffffffffffffffffff1673ffffffffffffffffffffffffffffffffffffffff16631003e2d2826040518263ffffffff1660e01b815260040162001a49919062002372565b6020604051808303816000875af115801562001a69573d6000803e3d6000fd5b505050506040513d601f19601f8201168201806040525081019062001a8f91906200283f565b508173ffffffffffffffffffffffffffffffffffffffff168373ffffffffffffffffffffffffffffffffffffffff167f8c5be1e5ebec7d5bd14f71427d1e84f3dd0314c0f7b2291e5b200ac8c7c3b9258360405162001aef919062002372565b60405180910390a3505050565b600073ffffffffffffffffffffffffffffffffffffffff168373ffffffffffffffffffffffffffffffffffffffff160362001b6e576040517f08c379a000000000000000000000000000000000000000000000000000000000815260040162001b659062002c2b565b60405180910390fd5b600073ffffffffffffffffffffffffffffffffffffffff168273ffffffffffffffffffffffffffffffffffffffff160362001be0576040517f08c379a000000000000000000000000000000000000000000000000000000000815260040162001bd79062002c9d565b60405180910390fd5b62001bed8383836200216a565b600073ffffffffffffffffffffffffffffffffffffffff166000808573ffffffffffffffffffffffffffffffffffffffff1673ffffffffffffffffffffffffffffffffffffffff16815260200190815260200160002060009054906101000a900473ffffffffffffffffffffffffffffffffffffffff1673ffffffffffffffffffffffffffffffffffffffff160362001cbd576040517f08c379a000000000000000000000000000000000000000000000000000000000815260040162001cb49062002d0f565b60405180910390fd5b806000808573ffffffffffffffffffffffffffffffffffffffff1673ffffffffffffffffffffffffffffffffffffffff16815260200190815260200160002060009054906101000a900473ffffffffffffffffffffffffffffffffffffffff1673ffffffffffffffffffffffffffffffffffffffff16636d4ce63c6040518163ffffffff1660e01b8152600401602060405180830381865afa15801562001d68573d6000803e3d6000fd5b505050506040513d601f19601f8201168201806040525081019062001d8e919062002548565b101562001dd2576040517f08c379a000000000000000000000000000000000000000000000000000000000815260040162001dc99062002d0f565b60405180910390fd5b6000808473ffffffffffffffffffffffffffffffffffffffff1673ffffffffffffffffffffffffffffffffffffffff16815260200190815260200160002060009054906101000a900473ffffffffffffffffffffffffffffffffffffffff1673ffffffffffffffffffffffffffffffffffffffff166327ee58a6826040518263ffffffff1660e01b815260040162001e6b919062002372565b6020604051808303816000875af115801562001e8b573d6000803e3d6000fd5b505050506040513d601f19601f8201168201806040525081019062001eb191906200283f565b50600073ffffffffffffffffffffffffffffffffffffffff166000808473ffffffffffffffffffffffffffffffffffffffff1673ffffffffffffffffffffffffffffffffffffffff16815260200190815260200160002060009054906101000a900473ffffffffffffffffffffffffffffffffffffffff1673ffffffffffffffffffffffffffffffffffffffff16036200201e5760007fffffffffffffffffffffffffffffffffffffffffffffffffffffffffffffffff60405162001f76906200216f565b62001f83929190620029e6565b604051809103906000f08015801562001fa0573d6000803e3d6000fd5b506000808473ffffffffffffffffffffffffffffffffffffffff1673ffffffffffffffffffffffffffffffffffffffff16815260200190815260200160002060006101000a81548173ffffffffffffffffffffffffffffffffffffffff021916908373ffffffffffffffffffffffffffffffffffffffff1602179055505b6000808373ffffffffffffffffffffffffffffffffffffffff1673ffffffffffffffffffffffffffffffffffffffff16815260200190815260200160002060009054906101000a900473ffffffffffffffffffffffffffffffffffffffff1673ffffffffffffffffffffffffffffffffffffffff16631003e2d2826040518263ffffffff1660e01b8152600401620020b7919062002372565b6020604051808303816000875af1158015620020d7573d6000803e3d6000fd5b505050506040513d601f19601f82011682018060405250810190620020fd91906200283f565b508173ffffffffffffffffffffffffffffffffffffffff168373ffffffffffffffffffffffffffffffffffffffff167fddf252ad1be2c89b69c2b068fc378daa952ba7f163c4a11628f55a4df523b3ef836040516200215d919062002372565b60405180910390a3505050565b505050565b610b7b8062002d3283390190565b600081519050919050565b600082825260208201905092915050565b60005b83811015620021b95780820151818401526020810190506200219c565b60008484015250505050565b6000601f19601f8301169050919050565b6000620021e3826200217d565b620021ef818562002188565b93506200220181856020860162002199565b6200220c81620021c5565b840191505092915050565b60006020820190508181036000830152620022338184620021d6565b905092915050565b600080fd5b600073ffffffffffffffffffffffffffffffffffffffff82169050919050565b60006200226d8262002240565b9050919050565b6200227f8162002260565b81146200228b57600080fd5b50565b6000813590506200229f8162002274565b92915050565b6000819050919050565b620022ba81620022a5565b8114620022c657600080fd5b50565b600081359050620022da81620022af565b92915050565b60008060408385031215620022fa57620022f96200223b565b5b60006200230a858286016200228e565b92505060206200231d85828601620022c9565b9150509250929050565b60008115159050919050565b6200233e8162002327565b82525050565b60006020820190506200235b600083018462002333565b92915050565b6200236c81620022a5565b82525050565b600060208201905062002389600083018462002361565b92915050565b600080600060608486031215620023ab57620023aa6200223b565b5b6000620023bb868287016200228e565b9350506020620023ce868287016200228e565b9250506040620023e186828701620022c9565b9150509250925092565b600060ff82169050919050565b6200240381620023eb565b82525050565b6000602082019050620024206000830184620023f8565b92915050565b6000602082840312156200243f576200243e6200223b565b5b60006200244f848285016200228e565b91505092915050565b620024638162002260565b82525050565b600060208201905062002480600083018462002458565b92915050565b60008060408385031215620024a0576200249f6200223b565b5b6000620024b0858286016200228e565b9250506020620024c3858286016200228e565b9150509250929050565b7f4e487b7100000000000000000000000000000000000000000000000000000000600052602260045260246000fd5b600060028204905060018216806200251557607f821691505b6020821081036200252b576200252a620024cd565b5b50919050565b6000815190506200254281620022af565b92915050565b6000602082840312156200256157620025606200223b565b5b6000620025718482850162002531565b91505092915050565b6000819050919050565b6000819050919050565b6000620025af620025a9620025a3846200257a565b62002584565b620022a5565b9050919050565b620025c1816200258e565b82525050565b6000602082019050620025de6000830184620025b6565b92915050565b6000819050919050565b60006200260f620026096200260384620025e4565b62002584565b620022a5565b9050919050565b6200262181620025ee565b82525050565b60006020820190506200263e600083018462002616565b92915050565b7f74686973206f7065726174696f6e20726571756972657320617070726f766500600082015250565b60006200267c601f8362002188565b9150620026898262002644565b602082019050919050565b60006020820190508181036000830152620026af816200266d565b9050919050565b6000819050919050565b6000620026e1620026db620026d584620026b6565b62002584565b620022a5565b9050919050565b620026f381620026c0565b82525050565b6000602082019050620027106000830184620026e8565b92915050565b7f7472616e7366657220616d6f756e74206578636565647320616c6c6f77616e6360008201527f6500000000000000000000000000000000000000000000000000000000000000602082015250565b60006200277460218362002188565b9150620027818262002716565b604082019050919050565b60006020820190508181036000830152620027a78162002765565b9050919050565b6000819050919050565b6000620027d9620027d3620027cd84620027ae565b62002584565b620022a5565b9050919050565b620027eb81620027b8565b82525050565b6000602082019050620028086000830184620027e0565b92915050565b620028198162002327565b81146200282557600080fd5b50565b60008151905062002839816200280e565b92915050565b6000602082840312156200285857620028576200223b565b5b6000620028688482850162002828565b91505092915050565b6000819050919050565b60006200289c62002896620028908462002871565b62002584565b620022a5565b9050919050565b620028ae816200287b565b82525050565b6000602082019050620028cb6000830184620028a3565b92915050565b6000819050919050565b6000620028fc620028f6620028f084620028d1565b62002584565b620022a5565b9050919050565b6200290e81620028db565b82525050565b60006020820190506200292b600083018462002903565b92915050565b7f6d696e7420746f20746865207a65726f20616464726573730000000000000000600082015250565b60006200296960188362002188565b9150620029768262002931565b602082019050919050565b600060208201905081810360008301526200299c816200295a565b9050919050565b6000819050919050565b6000620029ce620029c8620029c284620029a3565b62002584565b620022a5565b9050919050565b620029e081620029ad565b82525050565b6000604082019050620029fd6000830185620029d5565b62002a0c602083018462002361565b9392505050565b7f206275726e2066726f6d20746865207a65726f20616464726573730000000000600082015250565b600062002a4b601b8362002188565b915062002a588262002a13565b602082019050919050565b6000602082019050818103600083015262002a7e8162002a3c565b9050919050565b7f6275726e20616d6f756e7420657863656564732062616c616e63650000000000600082015250565b600062002abd601b8362002188565b915062002aca8262002a85565b602082019050919050565b6000602082019050818103600083015262002af08162002aae565b9050919050565b7f617070726f76652066726f6d20746865207a65726f2061646472657373000000600082015250565b600062002b2f601d8362002188565b915062002b3c8262002af7565b602082019050919050565b6000602082019050818103600083015262002b628162002b20565b9050919050565b7f617070726f766520746f20746865207a65726f20616464726573730000000000600082015250565b600062002ba1601b8362002188565b915062002bae8262002b69565b602082019050919050565b6000602082019050818103600083015262002bd48162002b92565b9050919050565b7f7472616e736665722066726f6d20746865207a65726f20616464726573730000600082015250565b600062002c13601e8362002188565b915062002c208262002bdb565b602082019050919050565b6000602082019050818103600083015262002c468162002c04565b9050919050565b7f7472616e7366657220746f20746865207a65726f206164647265737300000000600082015250565b600062002c85601c8362002188565b915062002c928262002c4d565b602082019050919050565b6000602082019050818103600083015262002cb88162002c76565b9050919050565b7f7472616e7366657220616d6f756e7420657863656564732062616c616e636500600082015250565b600062002cf7601f8362002188565b915062002d048262002cbf565b602082019050919050565b6000602082019050818103600083015262002d2a8162002ce8565b905091905056fe60806040523480156200001157600080fd5b5060405162000b7b38038062000b7b833981810160405281019062000037919062000194565b6000608573ffffffffffffffffffffffffffffffffffffffff16838360405160240162000066929190620001ec565b6040516020818303038152906040527f1c64499c000000000000000000000000000000000000000000000000000000007bffffffffffffffffffffffffffffffffffffffffffffffffffffffff19166020820180517bffffffffffffffffffffffffffffffffffffffffffffffffffffffff8381831617835250505050604051620000f2919062000292565b6000604051808303816000865af19150503d806000811462000131576040519150601f19603f3d011682016040523d82523d6000602084013e62000136565b606091505b50509050806200014b576200014a620002ab565b5b505050620002da565b600080fd5b6000819050919050565b6200016e8162000159565b81146200017a57600080fd5b50565b6000815190506200018e8162000163565b92915050565b60008060408385031215620001ae57620001ad62000154565b5b6000620001be858286016200017d565b9250506020620001d1858286016200017d565b9150509250929050565b620001e68162000159565b82525050565b6000604082019050620002036000830185620001db565b620002126020830184620001db565b9392505050565b600081519050919050565b600081905092915050565b60005b838110156200024f57808201518184015260208101905062000232565b60008484015250505050565b6000620002688262000219565b62000274818562000224565b9350620002868185602086016200022f565b80840191505092915050565b6000620002a082846200025b565b915081905092915050565b7f4e487b7100000000000000000000000000000000000000000000000000000000600052600160045260246000fd5b61089180620002ea6000396000f3fe608060405234801561001057600080fd5b50600436106100625760003560e01c80631003e2d21461006757806327ee58a6146100975780636ac5db19146100c75780636d4ce63c146100e55780637d7b009914610103578063f889794514610121575b600080fd5b610081600480360381019061007c91906106a8565b61013f565b60405161008e91906106f0565b60405180910390f35b6100b160048036038101906100ac91906106a8565b610244565b6040516100be91906106f0565b60405180910390f35b6100cf610349565b6040516100dc919061071a565b60405180910390f35b6100ed610454565b6040516100fa919061071a565b60405180910390f35b61010b61055d565b6040516101189190610776565b60405180910390f35b610129610562565b604051610136919061071a565b60405180910390f35b600080608573ffffffffffffffffffffffffffffffffffffffff168360405160240161016b919061071a565b6040516020818303038152906040527f1003e2d2000000000000000000000000000000000000000000000000000000007bffffffffffffffffffffffffffffffffffffffffffffffffffffffff19166020820180517bffffffffffffffffffffffffffffffffffffffffffffffffffffffff83818316178352505050506040516101f59190610802565b6000604051808303816000865af19150503d8060008114610232576040519150601f19603f3d011682016040523d82523d6000602084013e610237565b606091505b5050905080915050919050565b600080608573ffffffffffffffffffffffffffffffffffffffff1683604051602401610270919061071a565b6040516020818303038152906040527f27ee58a6000000000000000000000000000000000000000000000000000000007bffffffffffffffffffffffffffffffffffffffffffffffffffffffff19166020820180517bffffffffffffffffffffffffffffffffffffffffffffffffffffffff83818316178352505050506040516102fa9190610802565b6000604051808303816000865af19150503d8060008114610337576040519150601f19603f3d011682016040523d82523d6000602084013e61033c565b606091505b5050905080915050919050565b600080608573ffffffffffffffffffffffffffffffffffffffff166040516024016040516020818303038152906040527f6ac5db19000000000000000000000000000000000000000000000000000000007bffffffffffffffffffffffffffffffffffffffffffffffffffffffff19166020820180517bffffffffffffffffffffffffffffffffffffffffffffffffffffffff83818316178352505050506040516103f49190610802565b6000604051808303816000865af19150503d8060008114610431576040519150601f19603f3d011682016040523d82523d6000602084013e610436565b606091505b509150508080602001905181019061044e919061082e565b91505090565b600080608573ffffffffffffffffffffffffffffffffffffffff166040516024016040516020818303038152906040527f6d4ce63c000000000000000000000000000000000000000000000000000000007bffffffffffffffffffffffffffffffffffffffffffffffffffffffff19166020820180517bffffffffffffffffffffffffffffffffffffffffffffffffffffffff83818316178352505050506040516104ff9190610802565b600060405180830381855afa9150503d806000811461053a576040519150601f19603f3d011682016040523d82523d6000602084013e61053f565b606091505b5091505080806020019051810190610557919061082e565b91505090565b608581565b600080608573ffffffffffffffffffffffffffffffffffffffff166040516024016040516020818303038152906040527ff8897945000000000000000000000000000000000000000000000000000000007bffffffffffffffffffffffffffffffffffffffffffffffffffffffff19166020820180517bffffffffffffffffffffffffffffffffffffffffffffffffffffffff838183161783525050505060405161060d9190610802565b6000604051808303816000865af19150503d806000811461064a576040519150601f19603f3d011682016040523d82523d6000602084013e61064f565b606091505b5091505080806020019051810190610667919061082e565b91505090565b600080fd5b6000819050919050565b61068581610672565b811461069057600080fd5b50565b6000813590506106a28161067c565b92915050565b6000602082840312156106be576106bd61066d565b5b60006106cc84828501610693565b91505092915050565b60008115159050919050565b6106ea816106d5565b82525050565b600060208201905061070560008301846106e1565b92915050565b61071481610672565b82525050565b600060208201905061072f600083018461070b565b92915050565b600073ffffffffffffffffffffffffffffffffffffffff82169050919050565b600061076082610735565b9050919050565b61077081610755565b82525050565b600060208201905061078b6000830184610767565b92915050565b600081519050919050565b600081905092915050565b60005b838110156107c55780820151818401526020810190506107aa565b60008484015250505050565b60006107dc82610791565b6107e6818561079c565b93506107f68185602086016107a7565b80840191505092915050565b600061080e82846107d1565b915081905092915050565b6000815190506108288161067c565b92915050565b6000602082840312156108445761084361066d565b5b600061085284828501610819565b9150509291505056fea2646970667358221220df102411d26bfb41265a7840ed860ca6d34c15b71d19740310eee9d64fa5562764736f6c63430008130033a2646970667358221220edcb1c30918b9f2fb0a47f4e86b57b2507d9798b9cd166d579f155a38437a90164736f6c6343000813003360806040523480156200001157600080fd5b5060405162000b7b38038062000b7b833981810160405281019062000037919062000194565b6000608573ffffffffffffffffffffffffffffffffffffffff16838360405160240162000066929190620001ec565b6040516020818303038152906040527f1c64499c000000000000000000000000000000000000000000000000000000007bffffffffffffffffffffffffffffffffffffffffffffffffffffffff19166020820180517bffffffffffffffffffffffffffffffffffffffffffffffffffffffff8381831617835250505050604051620000f2919062000292565b6000604051808303816000865af19150503d806000811462000131576040519150601f19603f3d011682016040523d82523d6000602084013e62000136565b606091505b50509050806200014b576200014a620002ab565b5b505050620002da565b600080fd5b6000819050919050565b6200016e8162000159565b81146200017a57600080fd5b50565b6000815190506200018e8162000163565b92915050565b60008060408385031215620001ae57620001ad62000154565b5b6000620001be858286016200017d565b9250506020620001d1858286016200017d565b9150509250929050565b620001e68162000159565b82525050565b6000604082019050620002036000830185620001db565b620002126020830184620001db565b9392505050565b600081519050919050565b600081905092915050565b60005b838110156200024f57808201518184015260208101905062000232565b60008484015250505050565b6000620002688262000219565b62000274818562000224565b9350620002868185602086016200022f565b80840191505092915050565b6000620002a082846200025b565b915081905092915050565b7f4e487b7100000000000000000000000000000000000000000000000000000000600052600160045260246000fd5b61089180620002ea6000396000f3fe608060405234801561001057600080fd5b50600436106100625760003560e01c80631003e2d21461006757806327ee58a6146100975780636ac5db19146100c75780636d4ce63c146100e55780637d7b009914610103578063f889794514610121575b600080fd5b610081600480360381019061007c91906106a8565b61013f565b60405161008e91906106f0565b60405180910390f35b6100b160048036038101906100ac91906106a8565b610244565b6040516100be91906106f0565b60405180910390f35b6100cf610349565b6040516100dc919061071a565b60405180910390f35b6100ed610454565b6040516100fa919061071a565b60405180910390f35b61010b61055d565b6040516101189190610776565b60405180910390f35b610129610562565b604051610136919061071a565b60405180910390f35b600080608573ffffffffffffffffffffffffffffffffffffffff168360405160240161016b919061071a565b6040516020818303038152906040527f1003e2d2000000000000000000000000000000000000000000000000000000007bffffffffffffffffffffffffffffffffffffffffffffffffffffffff19166020820180517bffffffffffffffffffffffffffffffffffffffffffffffffffffffff83818316178352505050506040516101f59190610802565b6000604051808303816000865af19150503d8060008114610232576040519150601f19603f3d011682016040523d82523d6000602084013e610237565b606091505b5050905080915050919050565b600080608573ffffffffffffffffffffffffffffffffffffffff1683604051602401610270919061071a565b6040516020818303038152906040527f27ee58a6000000000000000000000000000000000000000000000000000000007bffffffffffffffffffffffffffffffffffffffffffffffffffffffff19166020820180517bffffffffffffffffffffffffffffffffffffffffffffffffffffffff83818316178352505050506040516102fa9190610802565b6000604051808303816000865af19150503d8060008114610337576040519150601f19603f3d011682016040523d82523d6000602084013e61033c565b606091505b5050905080915050919050565b600080608573ffffffffffffffffffffffffffffffffffffffff166040516024016040516020818303038152906040527f6ac5db19000000000000000000000000000000000000000000000000000000007bffffffffffffffffffffffffffffffffffffffffffffffffffffffff19166020820180517bffffffffffffffffffffffffffffffffffffffffffffffffffffffff83818316178352505050506040516103f49190610802565b6000604051808303816000865af19150503d8060008114610431576040519150601f19603f3d011682016040523d82523d6000602084013e610436565b606091505b509150508080602001905181019061044e919061082e565b91505090565b600080608573ffffffffffffffffffffffffffffffffffffffff166040516024016040516020818303038152906040527f6d4ce63c000000000000000000000000000000000000000000000000000000007bffffffffffffffffffffffffffffffffffffffffffffffffffffffff19166020820180517bffffffffffffffffffffffffffffffffffffffffffffffffffffffff83818316178352505050506040516104ff9190610802565b600060405180830381855afa9150503d806000811461053a576040519150601f19603f3d011682016040523d82523d6000602084013e61053f565b606091505b5091505080806020019051810190610557919061082e565b91505090565b608581565b600080608573ffffffffffffffffffffffffffffffffffffffff166040516024016040516020818303038152906040527ff8897945000000000000000000000000000000000000000000000000000000007bffffffffffffffffffffffffffffffffffffffffffffffffffffffff19166020820180517bffffffffffffffffffffffffffffffffffffffffffffffffffffffff838183161783525050505060405161060d9190610802565b6000604051808303816000865af19150503d806000811461064a576040519150601f19603f3d011682016040523d82523d6000602084013e61064f565b606091505b5091505080806020019051810190610667919061082e565b91505090565b600080fd5b6000819050919050565b61068581610672565b811461069057600080fd5b50565b6000813590506106a28161067c565b92915050565b6000602082840312156106be576106bd61066d565b5b60006106cc84828501610693565b91505092915050565b60008115159050919050565b6106ea816106d5565b82525050565b600060208201905061070560008301846106e1565b92915050565b61071481610672565b82525050565b600060208201905061072f600083018461070b565b92915050565b600073ffffffffffffffffffffffffffffffffffffffff82169050919050565b600061076082610735565b9050919050565b61077081610755565b82525050565b600060208201905061078b6000830184610767565b92915050565b600081519050919050565b600081905092915050565b60005b838110156107c55780820151818401526020810190506107aa565b60008484015250505050565b60006107dc82610791565b6107e6818561079c565b93506107f68185602086016107a7565b80840191505092915050565b600061080e82846107d1565b915081905092915050565b6000815190506108288161067c565b92915050565b6000602082840312156108445761084361066d565b5b600061085284828501610819565b9150509291505056fea2646970667358221220df102411d26bfb41265a7840ed860ca6d34c15b71d19740310eee9d64fa5562764736f6c63430008130033",
  "linkReferences": {},
  "deployedLinkReferences": {}
}